:100000000C942A000C9447000C9447000C94470071
:100010000C9447000C9447000C9447000C94470044
:100020000C9447000C9447000C9447000C94470034
:100030000C9447000C9447000C9447000C94470024
:100040000C9447000C9447000C9447000C94470014
:100050000C94470011241FBECFE5D8E0DEBFCDBF12
:1000600010E0A0E6B0E0EAECFAE002C005900D92E4
:10007000AE38B107D9F720E0AEE8B0E001C01D927C
:10008000A039B207E1F70E9449000C9463050C9473
:1000900000000E9453000E94F701FDCF0E949F04C0
:1000A0000E94CE0208950E944E0060E080E00E940F
:1000B000E90384E890E00E94480360E081E00E9448
:1000C000E90360918F0070E080E090E00E9464039B
:1000D00064E081E00E94E9038AE30E94EA0266E0AC
:1000E00081E00E94E90360918E0070E080E090E082
:1000F0000E94640308950E94040480918F008F5F22
:1001000080938F0060E080E00E94E90384E890E043
:100110000E94480360E081E00E94E90360918F0043
:1001200070E080E090E00E94640364E081E00E945F
:10013000E9038AE30E94EA0266E081E00E94E903A3
:1001400060918E0070E080E090E00E94640308956A
:1001500080918E008B3360F50E94040480918E00A4
:100160008F5F80938E0060E080E00E94E90384E866
:1001700090E00E94480360E081E00E94E903609102
:100180008F0070E080E090E00E94640364E081E012
:100190000E94E9038AE30E94EA0266E081E00E948D
:1001A000E90360918E0070E080E090E00E946403BB
:1001B00008950E94040410928F0010928E0060E057
:1001C00080E00E94E90384E890E00E94480360E038
:1001D00081E00E94E90360918F0070E080E090E090
:1001E0000E94640364E081E00E94E9038AE30E94C4
:1001F000EA0266E081E00E94E90360918E0070E00F
:1002000080E090E00E9464030E946B020895809158
:100210008E008823C9F10E94040480918E008150D1
:1002200080938E0060E080E00E94E90384E890E023
:100230000E94480360E081E00E94E90360918F0022
:1002400070E080E090E00E94640364E081E00E943E
:10025000E9038AE30E94EA0266E081E00E94E90382
:1002600060918E0070E080E090E00E9464032FEFC8
:1002700083ED90E3215080409040E1F700C0000002
:1002800080918E008111C7CF08950E94040486E7F3
:1002900090E00E9448030E9466020E940E042FEF25
:1002A00087EA91E6215080409040E1F700C00000CD
:1002B0000E946B020E9413042FEF83ED90E3215004
:1002C00080409040E1F700C000000E9466020E945A
:1002D0000E042FEF87EA91E6215080409040E1F72D
:1002E00000C000000E946B020E9413040895CF9387
:1002F0002FEF83ED90E3215080409040E1F700C064
:1003000000000E940701CBE33BC091113DC00E9459
:10031000040480918F00815080938F00C0938E00E1
:1003200060E080E00E94E90384E890E00E944803D6
:1003300060E081E00E94E90360918F0070E080E05E
:1003400090E00E94640364E081E00E94E9038AE394
:100350000E94EA0266E081E00E94E90360918E005B
:1003600070E080E090E00E9464032FEF83ED90E363
:10037000215080409040E1F700C000000E9407013A
:1003800080918F0090918E008111BFCF91112DC06F
:100390000E9445010E94040410928F0010928E006A
:1003A00060E080E00E94E90384E890E00E94480356
:1003B00060E081E00E94E90360918F0070E080E0DE
:1003C00090E00E94640364E081E00E94E9038AE314
:1003D0000E94EA0266E081E00E94E90360918E00DB
:1003E00070E080E090E00E946403CF91089580E087
:1003F0000E9425028093830081E00E942502809361
:10040000820082E00E9425028093810083E00E94A6
:1004100025028093800090918300911103C00E9477
:100420007B00089590918200911103C00E94A80062
:10043000089590918100911103C00E947701089561
:10044000811102C00E94D90008958130A1F028F0E6
:100450008230F9F0833051F137C080B382FB8827B6
:1004600080F92FEF33EF91E0215030409040E1F7D9
:1004700000C00000089580B383FB882780F92FEF28
:1004800033EF91E0215030409040E1F700C0000090
:10049000089580B3829581702FEF33EF91E0215062
:1004A00030409040E1F700C00000089580B385FB24
:1004B000882780F92FEF33EF91E0215030409040B2
:1004C000E1F700C00000089581E0089561E085E152
:1004D0000E941804089560E085E10E9418040895C0
:1004E000CF93C82F60E081E00E94180460E082E0B2
:1004F0000E941804C4FB662760F983E00E94180478
:10050000C5FB662760F984E00E941804C6FB6627D5
:1005100060F985E00E9418046C2F661F6627661F2D
:1005200086E00E94180461E082E00E9418048FE9CE
:100530009FE00197F1F700C0000060E082E00E94B8
:1005400018046C2F617083E00E941804C1FB6627B9
:1005500060F984E00E941804C2FB662760F985E018
:100560000E941804C3FB662760F986E00E94180405
:1005700061E082E00E9418048FE99FE00197F1F7A3
:1005800000C0000060E082E00E9418048FE19EE459
:100590000197F1F700C00000CF91089583E30E9416
:1005A000700282E30E94700288E20E9470028CE076
:1005B0000E94700281E00E94700286E00E94700238
:1005C00082E00E9470028FE19EE40197F1F700C083
:1005D00000000895CF93C82F61E081E00E941804C5
:1005E00060E082E00E941804C4FB662760F983E0A3
:1005F0000E941804C5FB662760F984E00E94180475
:10060000C6FB662760F985E00E9418046C2F661F00
:100610006627661F86E00E94180461E082E00E945F
:1006200018048FE99FE00197F1F700C0000060E037
:1006300082E00E9418046C2F617083E00E9418040D
:10064000C1FB662760F984E00E941804C2FB66279C
:1006500060F985E00E941804C3FB662760F986E014
:100660000E94180461E082E00E9418048FE99FE074
:100670000197F1F700C0000060E082E00E941804DA
:100680008FE19EE40197F1F700C00000CF9108953B
:100690000F931F93CF93FC018081882359F08F0122
:1006A000C0E00E94EA02CF5FF801EC0FF11D8081EB
:1006B0008111F7CF8FE19EE40197F1F700C00000B0
:1006C000CF911F910F9108958F929F92AF92BF92F9
:1006D000CF92DF92EF92FF920F931F938B019C01B9
:1006E000611571058105910521F480E30E94EA02FC
:1006F0005FC0992334F016161706180619062CF059
:1007000057C08DE20E94EA0253C061E070E080E0D1
:1007100090E00F2EFAE08F2E912CA12CB12CF02D11
:10072000DC01CB01880F991FAA1FBB1F6C017D0143
:10073000CC0CDD1CEE1CFF1CCC0CDD1CEE1CFF1CCD
:10074000C80ED91EEA1EFB1EC901B801A5019401FD
:100750000E9422056C0D7D1D8E1D9F1D022F132FE3
:10076000242F352F1016110612061306CCF2623014
:10077000710581059105E4F00F2EFAE08F2E912C82
:10078000A12CB12CF02DA50194010E942205E22E8E
:10079000F32E042F152F80E3860F0E94EA026E2DA0
:1007A0007F2D802F912F62307105810591055CF7B7
:1007B0008FE19EE40197F1F700C000001F910F91B7
:1007C000FF90EF90DF90CF90BF90AF909F908F9071
:1007D0000895CF93DF9300D0CDB7DEB790E899832B
:1007E00090EC9A83FE01E80FF11D8181860F0E9433
:1007F00070028FE19EE40197F1F700C000000F90B6
:100800000F90DF91CF91089581E00E9470028FE1F7
:100810009EE40197F1F700C00000089561E082E1D5
:100820000E941804089560E082E10E94180408956F
:10083000982F9695969596958770662309F43FC0F4
:10084000613009F07BC0913099F028F09230E9F0E6
:10085000933041F108954BB321E030E0B90102C07B
:10086000660F771F8A95E2F7CB01842B8BBB089527
:1008700048B321E030E0B90102C0660F771F8A95C6
:10088000E2F7CB01842B88BB089545B321E030E02B
:10089000B90102C0660F771F8A95E2F7CB01842B5E
:1008A00085BB089542B321E030E0B90102C0660F74
:1008B000771F8A95E2F7CB01842B82BB0895913094
:1008C000A1F028F09230F9F0933059F108954BB32C
:1008D00021E030E0B90102C0660F771F8A95E2F788
:1008E000CB01809584238BBB089548B321E030E091
:1008F000B90102C0660F771F8A95E2F7CB01809598
:10090000842388BB089545B321E030E0B90102C0DB
:10091000660F771F8A95E2F7CB018095842385BB0C
:10092000089542B321E030E0B90102C0660F771F9D
:100930008A95E2F7CB018095842382BB0895E0E697
:10094000F0E046E750E061E070E08081982F9695F6
:100950009695969587702181222319F02130C9F14F
:100960006BC0913091F028F09230D9F0933029F19A
:1009700063C09AB39B0102C0220F331F8A95E2F72E
:10098000822F809589238ABB57C097B39B0102C0F1
:10099000220F331F8A95E2F7822F8095892387BB28
:1009A0004BC094B39B0102C0220F331F8A95E2F71C
:1009B000822F8095892384BB3FC091B39B0102C0E5
:1009C000220F331F8A95E2F7822F8095892381BBFE
:1009D00033C0913089F028F09230C9F0933011F192
:1009E0002BC02AB3DB0102C0AA0FBB1F8A95E2F716
:1009F000CD01822B8ABB20C027B3DB0102C0AA0F26
:100A0000BB1F8A95E2F7CD01822B87BB15C024B3AB
:100A1000DB0102C0AA0FBB1F8A95E2F7CD01822B32
:100A200084BB0AC021B3DB0102C0AA0FBB1F8A9599
:100A3000E2F7CD01822B81BB3296E417F50709F06E
:100A400084CF0895052E97FB1EF400940E9439056B
:100A500057FD07D00E94410507FC03D04EF40C94CB
:100A6000390550954095309521953F4F4F4F5F4F39
:100A7000089590958095709561957F4F8F4F9F4F0A
:100A80000895A1E21A2EAA1BBB1BFD010DC0AA1FCF
:100A9000BB1FEE1FFF1FA217B307E407F50720F0E7
:100AA000A21BB30BE40BF50B661F771F881F991F62
:100AB0001A9469F760957095809590959B01AC01AB
:0A0AC000BD01CF010895F894FFCFA7
:100ACA000101020103010401050106011A001B00CC
:100ADA001C001D00150154696D65277320557000AF
:0E0AEA00010101014D494E203A2053454300C1
:00000001FF
