:100000000C942A000C9447000C9447000C94470071
:100010000C9447000C9447000C9447000C94470044
:100020000C9447000C9447000C9447000C94470034
:100030000C9447000C9447000C9447000C94470024
:100040000C9447000C9447000C9447000C94470014
:100050000C94470011241FBECFE5D8E0DEBFCDBF12
:1000600010E0A0E6B0E0E6E2FBE002C005900D92F1
:10007000AC3AB107D9F720E0ACEAB0E001C01D927C
:10008000AE3AB207E1F70E9449000C9491050C9436
:1000900000000E9453000E942502FDCF0E94CD0463
:1000A0000E94FC0208950E944E0060E080E00E94E1
:1000B000170484E890E00E9476032FEF87EA91E628
:1000C000215080409040E1F700C000000E943204BF
:1000D00060E080E00E9417048EE890E00E947603C2
:1000E00060E081E00E94170487E990E00E947603B7
:1000F0002FEF87EA91E6215080409040E1F700C061
:1001000000000E94320460E080E00E94170482EA4E
:1001100090E00E94760360E081E00E941704609105
:10012000AD0070E080E090E00E94920364E081E026
:100130000E9417048AE30E94180366E081E00E948F
:1001400017046091AC0070E080E090E00E949203A0
:1001500008950E9432048091AD008F5F8093AD00BE
:1001600060E080E00E94170482EA90E00E9476033B
:1001700060E081E00E9417046091AD0070E080E0D3
:1001800090E00E94920364E081E00E9417048AE3F9
:100190000E94180366E081E00E9417046091AC00A1
:1001A00070E080E090E00E94920308958091AC009E
:1001B0008B3360F50E9432048091AC008F5F809396
:1001C000AC0060E080E00E94170482EA90E00E94A8
:1001D000760360E081E00E9417046091AD0070E05A
:1001E00080E090E00E94920364E081E00E941704A6
:1001F0008AE30E94180366E081E00E941704609180
:10020000AC0070E080E090E00E94920308950E94AC
:1002100032041092AD001092AC0060E080E00E94C9
:10022000170482EA90E00E94760360E081E00E9479
:1002300017046091AD0070E080E090E00E949203AE
:1002400064E081E00E9417048AE30E94180366E0DC
:1002500081E00E9417046091AC0070E080E090E0C3
:100260000E9492030E94990208958091AC00882315
:10027000C9F10E9432048091AC0081508093AC009F
:1002800060E080E00E94170482EA90E00E9476031A
:1002900060E081E00E9417046091AD0070E080E0B2
:1002A00090E00E94920364E081E00E9417048AE3D8
:1002B0000E94180366E081E00E9417046091AC0080
:1002C00070E080E090E00E9492032FEF83ED90E3D6
:1002D000215080409040E1F700C000008091AC00C8
:1002E0008111C7CF08950E94320486E790E00E94F2
:1002F00076030E9494020E943C042FEF87EA91E665
:10030000215080409040E1F700C000000E94990217
:100310000E9441042FEF83ED90E3215080409040F4
:10032000E1F700C000000E9494020E943C042FEFFD
:1003300087EA91E6215080409040E1F700C000003C
:100340000E9499020E9441040895CF932FEF83EDFC
:1003500090E3215080409040E1F700C000000E94EF
:100360003501CBE33BC091113DC00E943204809126
:10037000AD0081508093AD00C093AC0060E080E0A0
:100380000E94170482EA90E00E94760360E081E018
:100390000E9417046091AD0070E080E090E00E9440
:1003A000920364E081E00E9417048AE30E9418032C
:1003B00066E081E00E9417046091AC0070E080E08C
:1003C00090E00E9492032FEF83ED90E32150804054
:1003D0009040E1F700C000000E9435018091AD001F
:1003E0009091AC008111BFCF91112DC00E9473017B
:1003F0000E9432041092AD001092AC0060E080E0E8
:100400000E94170482EA90E00E94760360E081E097
:100410000E9417046091AD0070E080E090E00E94BF
:10042000920364E081E00E9417048AE30E941803AB
:1004300066E081E00E9417046091AC0070E080E00B
:1004400090E00E949203CF91089580E00E945302B1
:100450008093830081E00E9453028093820082E0B7
:100460000E9453028093810083E00E945302809394
:10047000800090918300911103C00E94A90008950B
:1004800090918200911103C00E94D600089590912E
:100490008100911103C00E94A5010895811102C03D
:1004A0000E94070108958130A1F028F08230F9F010
:1004B000833051F137C080B382FB882780F92FEF5A
:1004C00033EF91E0215030409040E1F700C0000050
:1004D000089580B383FB882780F92FEF33EF91E0F5
:1004E000215030409040E1F700C00000089580B3F3
:1004F000829581702FEF33EF91E021503040904092
:10050000E1F700C00000089580B385FB882780F9DB
:100510002FEF33EF91E0215030409040E1F700C0E1
:100520000000089581E0089561E085E10E9446049D
:10053000089560E085E10E9446040895CF93C82F96
:1005400060E081E00E94460460E082E00E94460490
:10055000C4FB662760F983E00E944604C5FB66275A
:1005600060F984E00E944604C6FB662760F985E0D6
:100570000E9446046C2F661F6627661F86E00E9455
:10058000460461E082E00E9446048FE99FE0019703
:10059000F1F700C0000060E082E00E9446046C2F8A
:1005A000617083E00E944604C1FB662760F984E025
:1005B0000E944604C2FB662760F985E00E9446045B
:1005C000C3FB662760F986E00E94460461E082E092
:1005D0000E9446048FE99FE00197F1F700C00000F8
:1005E00060E082E00E9446048FE19EE40197F1F70B
:1005F00000C00000CF91089583E30E949E0282E331
:100600000E949E0288E20E949E028CE00E949E024E
:1006100081E00E949E0286E00E949E0282E00E948B
:100620009E028FE19EE40197F1F700C0000008955B
:10063000CF93C82F61E081E00E94460460E082E031
:100640000E944604C4FB662760F983E00E944604CA
:10065000C5FB662760F984E00E944604C6FB662756
:1006600060F985E00E9446046C2F661F6627661FAE
:1006700086E00E94460461E082E00E9446048FE921
:100680009FE00197F1F700C0000060E082E00E9467
:1006900046046C2F617083E00E944604C1FB66270C
:1006A00060F984E00E944604C2FB662760F985E099
:1006B0000E944604C3FB662760F986E00E94460458
:1006C00061E082E00E9446048FE99FE00197F1F724
:1006D00000C0000060E082E00E9446048FE19EE4DA
:1006E0000197F1F700C00000CF9108950F931F9379
:1006F000CF93FC018081882359F08F01C0E00E94D4
:100700001803CF5FF801EC0FF11D80818111F7CF45
:100710008FE19EE40197F1F700C00000CF911F9197
:100720000F9108958F929F92AF92BF92CF92DF92D6
:10073000EF92FF920F931F938B019C01611571053E
:100740008105910521F480E30E9418035FC099237D
:1007500034F016161706180619062CF057C08DE24D
:100760000E94180353C061E070E080E090E00F2E1B
:10077000FAE08F2E912CA12CB12CF02DDC01CB01B5
:10078000880F991FAA1FBB1F6C017D01CC0CDD1CBB
:10079000EE1CFF1CCC0CDD1CEE1CFF1CC80ED91E71
:1007A000EA1EFB1EC901B801A50194010E94500573
:1007B0006C0D7D1D8E1D9F1D022F132F242F352F95
:1007C0001016110612061306CCF26230710581056F
:1007D0009105E4F00F2EFAE08F2E912CA12CB12C74
:1007E000F02DA50194010E945005E22EF32E042F56
:1007F000152F80E3860F0E9418036E2D7F2D802F0A
:10080000912F62307105810591055CF78FE19EE4BF
:100810000197F1F700C000001F910F91FF90EF903A
:10082000DF90CF90BF90AF909F908F900895CF931F
:10083000DF9300D0CDB7DEB790E8998390EC9A8330
:10084000FE01E80FF11D8181860F0E949E028FE15B
:100850009EE40197F1F700C000000F900F90DF9128
:10086000CF91089581E00E949E028FE19EE401975E
:10087000F1F700C00000089561E082E10E944604A3
:10088000089560E082E10E9446040895982F9695AD
:10089000969596958770662309F43FC0613009F0FC
:1008A0007BC0913099F028F09230E9F0933041F11B
:1008B00008954BB321E030E0B90102C0660F771F05
:1008C0008A95E2F7CB01842B8BBB089548B321E0D6
:1008D00030E0B90102C0660F771F8A95E2F7CB01BD
:1008E000842B88BB089545B321E030E0B90102C0F4
:1008F000660F771F8A95E2F7CB01842B85BB08959D
:1009000042B321E030E0B90102C0660F771F8A953B
:10091000E2F7CB01842B82BB08959130A1F028F03F
:100920009230F9F0933059F108954BB321E030E063
:10093000B90102C0660F771F8A95E2F7CB01809557
:1009400084238BBB089548B321E030E0B90102C095
:10095000660F771F8A95E2F7CB018095842388BBC9
:10096000089545B321E030E0B90102C0660F771F5A
:100970008A95E2F7CB018095842385BB089542B325
:1009800021E030E0B90102C0660F771F8A95E2F7D7
:10099000CB018095842382BB0895E0E6F0E046E732
:1009A00050E061E070E08081982F9695969596953D
:1009B00087702181222319F02130C9F16BC0913059
:1009C00091F028F09230D9F0933029F163C09AB3B6
:1009D0009B0102C0220F331F8A95E2F7822F809578
:1009E00089238ABB57C097B39B0102C0220F331FD4
:1009F0008A95E2F7822F8095892387BB4BC094B3F9
:100A00009B0102C0220F331F8A95E2F7822F809547
:100A1000892384BB3FC091B39B0102C0220F331FC7
:100A20008A95E2F7822F8095892381BB33C091306C
:100A300089F028F09230C9F0933011F12BC02AB31D
:100A4000DB0102C0AA0FBB1F8A95E2F7CD01822B02
:100A50008ABB20C027B3DB0102C0AA0FBB1F8A9547
:100A6000E2F7CD01822B87BB15C024B3DB0102C0A6
:100A7000AA0FBB1F8A95E2F7CD01822B84BB0AC067
:100A800021B3DB0102C0AA0FBB1F8A95E2F7CD019B
:100A9000822B81BB3296E417F50709F084CF0895C5
:100AA000052E97FB1EF400940E94670557FD07D0A2
:100AB0000E946F0507FC03D04EF40C946705509517
:100AC0004095309521953F4F4F4F5F4F089590953A
:100AD0008095709561957F4F8F4F9F4F0895A1E24C
:100AE0001A2EAA1BBB1BFD010DC0AA1FBB1FEE1FA8
:100AF000FF1FA217B307E407F50720F0A21BB30BF3
:100B0000E40BF50B661F771F881F991F1A9469F76E
:100B100060957095809590959B01AC01BD01CF01CA
:060B20000895F894FFCFD8
:100B26000101020103010401050106011A001B006F
:100B36001C001D00150154696D6527732055700052
:100B46000101010153746F705761746368004D6150
:100B560064792042793A00416C69204D616D646F79
:0C0B660068004D494E203A2053454300E2
:00000001FF
