S011000053746F7057617463682E7372656376
S11300000C942A000C9447000C9447000C9447006D
S11300100C9447000C9447000C9447000C94470040
S11300200C9447000C9447000C9447000C94470030
S11300300C9447000C9447000C9447000C94470020
S11300400C9447000C9447000C9447000C94470010
S11300500C94470011241FBECFE5D8E0DEBFCDBF0E
S113006010E0A0E6B0E0EEE3FBE002C005900D92E4
S1130070A23BB107D9F720E0A2EBB0E001C01D928A
S1130080A43BB207E1F70E9449000C949D050C942F
S113009000000E9453000E942502FDCF0E94D90453
S11300A00E94FC0208950E944E0060E080E00E94DD
S11300B023048AE890E00E9476032FEF87EA91E612
S11300C0215080409040E1F700C000000E943E04AF
S11300D060E080E00E94230484E990E00E947603BB
S11300E060E081E00E9423048DE990E00E947603A1
S11300F02FEF87EA91E6215080409040E1F700C05D
S113010000000E943E0460E080E00E94230488EA2C
S113011090E00E94760360E081E00E9423046091F5
S1130120B30070E080E090E00E94920364E081E01C
S11301300E9423048AE30E94180366E081E00E947F
S113014023046091B20070E080E090E00E9492038A
S113015008950E943E048091B3008F5F8093B300A2
S113016060E080E00E94230488EA90E00E94760325
S113017060E081E00E9423046091B30070E080E0BD
S113018090E00E94920364E081E00E9423048AE3E9
S11301900E94180366E081E00E9423046091B2008B
S11301A070E080E090E00E94920308958091B20094
S11301B08B3360F50E943E048091B2008F5F809380
S11301C0B20060E080E00E94230488EA90E00E948C
S11301D0760360E081E00E9423046091B30070E044
S11301E080E090E00E94920364E081E00E94230496
S11301F08AE30E94180366E081E00E942304609170
S1130200B20070E080E090E00E94920308950E94A2
S11302103E041092B3001092B20060E080E00E94AD
S1130220230488EA90E00E94760360E081E00E9463
S113023023046091B30070E080E090E00E94920398
S113024064E081E00E9423048AE30E94180366E0CC
S113025081E00E9423046091B20070E080E090E0AD
S11302600E9492030E94990208958091B20088230B
S1130270C9F10E943E048091B20081508093B20083
S113028060E080E00E94230488EA90E00E94760304
S113029060E081E00E9423046091B30070E080E09C
S11302A090E00E94920364E081E00E9423048AE3C8
S11302B00E94180366E081E00E9423046091B2006A
S11302C070E080E090E00E9492032FEF83ED90E3D2
S11302D0215080409040E1F700C000008091B200BE
S11302E08111C7CF08950E943E048CE790E00E94DC
S11302F076030E9494020E9448042FEF87EA91E655
S1130300215080409040E1F700C000000E94990213
S11303100E944D042FEF83ED90E3215080409040E4
S1130320E1F700C000000E9494020E9448042FEFED
S113033087EA91E6215080409040E1F700C0000038
S11303400E9499020E944D040895CF932FEF83EDEC
S113035090E3215080409040E1F700C000000E94EB
S11303603501CBE33BC091113DC00E943E04809116
S1130370B30081508093B300C093B20060E080E08A
S11303800E94230488EA90E00E94760360E081E002
S11303900E9423046091B30070E080E090E00E942A
S11303A0920364E081E00E9423048AE30E9418031C
S11303B066E081E00E9423046091B20070E080E076
S11303C090E00E9492032FEF83ED90E32150804050
S11303D09040E1F700C000000E9435018091B30015
S11303E09091B2008111BFCF91112DC00E94730171
S11303F00E943E041092B3001092B20060E080E0CC
S11304000E94230488EA90E00E94760360E081E081
S11304100E9423046091B30070E080E090E00E94A9
S1130420920364E081E00E9423048AE30E9418039B
S113043066E081E00E9423046091B20070E080E0F5
S113044090E00E949203CF91089580E00E945302AD
S11304508093890081E00E9453028093880082E0A7
S11304600E9453028093870083E00E94530280938A
S1130470860090918900911103C00E94A9000895FB
S113048090918800911103C00E94D6000895909124
S11304908700911103C00E94A5010895811102C033
S11304A00E94070108958130A1F028F08230F9F00C
S11304B0833051F137C080B382FB882780F92FEF56
S11304C036E791E0215030409040E1F700C0000051
S11304D0089580B383FB882780F92FEF36E791E0F6
S11304E0215030409040E1F700C00000089580B3EF
S11304F0829581702FEF36E791E021503040904093
S1130500E1F700C00000089580B385FB882780F9D7
S11305102FEF36E791E0215030409040E1F700C0E2
S11305200000089581E0089561E085E10E9452048D
S1130530089560E085E10E9452040895CF93C82F86
S113054060E081E00E94520460E082E00E94520474
S1130550C4FB662760F983E00E945204C5FB66274A
S113056060F984E00E945204C6FB662760F985E0C6
S11305700E9452046C2F661F6627661F86E00E9445
S1130580520461E082E00E9452048FE99FE00197E7
S1130590F1F700C0000060E082E00E9452046C2F7A
S11305A0617083E00E945204C1FB662760F984E015
S11305B00E945204C2FB662760F985E00E9452043F
S11305C0C3FB662760F986E00E94520461E082E082
S11305D00E9452048FE99FE00197F1F700C00000E8
S11305E060E082E00E9452048FE19EE40197F1F7FB
S11305F000C00000CF91089583E30E949E0282E32D
S11306000E949E0288E20E949E028CE00E949E024A
S113061081E00E949E0286E00E949E0282E00E9487
S11306209E028FE19EE40197F1F700C00000089557
S1130630CF93C82F61E081E00E94520460E082E021
S11306400E945204C4FB662760F983E00E945204AE
S1130650C5FB662760F984E00E945204C6FB662746
S113066060F985E00E9452046C2F661F6627661F9E
S113067086E00E94520461E082E00E9452048FE905
S11306809FE00197F1F700C0000060E082E00E9463
S113069052046C2F617083E00E945204C1FB6627F0
S11306A060F984E00E945204C2FB662760F985E089
S11306B00E945204C3FB662760F986E00E9452043C
S11306C061E082E00E9452048FE99FE00197F1F714
S11306D000C0000060E082E00E9452048FE19EE4CA
S11306E00197F1F700C00000CF9108950F931F9375
S11306F0CF93FC018081882359F08F01C0E00E94D0
S11307001803CF5FF801EC0FF11D80818111F7CF41
S11307108FE19EE40197F1F700C00000CF911F9193
S11307200F9108954F925F926F927F928F929F9252
S1130730AF92BF92CF92DF92EF92FF926B017C0156
S1130740611571058105910551F480E30E94180338
S113075067C01C141D041E041F047CF061C099238F
S1130760C4F78DE20E941803F094E094D094C094EE
S1130770C11CD11CE11CF11CECCF61E070E080E0F5
S113078090E00F2EFAE08F2E912CA12CB12CF02D9D
S1130790DC01CB01880F991FAA1FBB1F2C013D014F
S11307A0440C551C661C771C440C551C661C771C99
S11307B0480E591E6A1E7B1EC701B601A50194018D
S11307C00E945C05640D751D861D971DC22ED32ED7
S11307D0E42EF52E1C141D041E041F04CCF26230FA
S11307E0710581059105E4F00F2EFAE08F2E912C0E
S11307F0A12CB12CF02DA50194010E945C05C22E00
S1130800D32EE42EF52E80E3860F0E9418036C2D60
S11308107D2D8E2D9F2D62307105810591055CF72C
S11308208FE19EE40197F1F700C00000FF90EF9084
S1130830DF90CF90BF90AF909F908F907F906F90FC
S11308405F904F900895CF93DF9300D0CDB7DEB77C
S113085090E8998390EC9A83FE01E80FF11D818161
S1130860860F0E949E028FE19EE40197F1F700C07B
S113087000000F900F90DF91CF91089581E00E94C6
S11308809E028FE19EE40197F1F700C000000895F5
S113089061E082E10E945204089560E082E10E94D6
S11308A052040895982F9695969596958770662389
S11308B009F43FC0613009F07BC0913099F028F011
S11308C09230E9F0933041F108954BB321E030E0E8
S11308D0B90102C0660F771F8A95E2F7CB01842B1A
S11308E08BBB089548B321E030E0B90102C0660F24
S11308F0771F8A95E2F7CB01842B88BB089545B313
S113090021E030E0B90102C0660F771F8A95E2F753
S1130910CB01842B85BB089542B321E030E0B901BB
S113092002C0660F771F8A95E2F7CB01842B82BB46
S113093008959130A1F028F09230F9F0933059F1F4
S113094008954BB321E030E0B90102C0660F771F70
S11309508A95E2F7CB01809584238BBB089548B335
S113096021E030E0B90102C0660F771F8A95E2F7F3
S1130970CB018095842388BB089545B321E030E002
S1130980B90102C0660F771F8A95E2F7CB01809503
S1130990842385BB089542B321E030E0B90102C04D
S11309A0660F771F8A95E2F7CB018095842382BB7B
S11309B00895E0E6F0E04CE750E061E070E080810B
S11309C0982F96959695969587702181222319F0F4
S11309D02130C9F16BC0913091F028F09230D9F0F8
S11309E0933029F163C09AB39B0102C0220F331FD5
S11309F08A95E2F7822F809589238ABB57C097B3E3
S1130A009B0102C0220F331F8A95E2F7822F809543
S1130A10892387BB4BC094B39B0102C0220F331FB1
S1130A208A95E2F7822F8095892384BB3FC091B3D6
S1130A309B0102C0220F331F8A95E2F7822F809513
S1130A40892381BB33C0913089F028F09230C9F0FA
S1130A50933011F12BC02AB3DB0102C0AA0FBB1FD4
S1130A608A95E2F7CD01822B8ABB20C027B3DB0134
S1130A7002C0AA0FBB1F8A95E2F7CD01822B87BB68
S1130A8015C024B3DB0102C0AA0FBB1F8A95E2F78D
S1130A90CD01822B84BB0AC021B3DB0102C0AA0FA3
S1130AA0BB1F8A95E2F7CD01822B81BB3296E417F6
S1130AB0F50709F084CF0895052E97FB1EF40094E2
S1130AC00E94730557FD07D00E947B0507FC03D0E5
S1130AD04EF40C94730550954095309521953F4FF5
S1130AE04F4F5F4F089590958095709561957F4F16
S1130AF08F4F9F4F0895A1E21A2EAA1BBB1BFD0125
S1130B000DC0AA1FBB1FEE1FFF1FA217B307E407E8
S1130B10F50720F0A21BB30BE40BF50B661F771F40
S1130B20881F991F1A9469F7609570958095909520
S1110B309B01AC01BD01CF010895F894FFCFE5
S1130B3E0101020103010401050106011A001B0053
S1130B4E1C001D00150112010000000054696D65A2
S1130B5E2773205570000101010153746F705761A2
S1130B6E746368004D6164652042793A00416C6992
S1130B7E204D616D646F68004D494E203A205345F7
S1050B8E43001E
S9030000FC
